:1000000007C1000033C1000031C100002FC1000052
:100010002DC100002BC1000029C1000027C1000034
:1000200025C1000023C1000021C100001FC1000044
:100030001DC100001BC1000019C1000017C1000054
:1000400015C10000EAC3000011C100000FC100008B
:100050000DC100000BC1000009C1000094C30000E5
:1000600005C100005AC300002FC30000FFC00000FC
:10007000FDC00000FBC00000F9C00000F7C0000098
:10008000F5C00000F3C00000F1C00000EFC00000A8
:10009000EDC00000EBC00000E9C00000E7C00000B8
:1000A000E5C00000E3C00000E1C00000DFC00000C8
:1000B000DDC00000DBC00000D9C00000D7C00000D8
:1000C000D5C00000D3C00000D1C00000CFC00000E8
:1000D000CDC00000CBC00000C9C00000C7C00000F8
:1000E000C5C000008602890278027C028202C0023A
:1000F0008D02910297029B029F02A502A902AD0206
:10010000C002B302B702BB02000021002400270096
:100110002A002D0030003300010100000401070116
:100120000A0100002200250028002B002E003100CB
:10013000340002010000050108010B010505050559
:10014000070508080808020202020A0A080804044F
:10015000040401010101010101010303030303037D
:100160000303040707070C0C0C0C0C0C0C0C02020C
:10017000020206060606060606060B0B0B0B0B0B09
:100180000B0B010210202008081020401020408096
:10019000020102010804020101020408102040804B
:1001A00080402010080402018004020180402010D9
:1001B0000804020108040201010204081020408022
:1001C000010204081020408000000A0B02090C0DF7
:1001D0000E080703040100000000000000000000FA
:1001E000000000000000000000000000000000000F
:1001F00000000000121110000000000000000000CC
:1002000000000000000000000000000000002A06BE
:1002100011241FBECFEFD1E2DEBFCDBF00E00CBF87
:1002200012E0A0E0B2E0EEE0FDE000E00BBF02C0B3
:1002300007900D92A63EB107D9F723E0A6EEB2E0F3
:1002400001C01D92A539B207E1F711E0C8E0D1E085
:1002500000E005C021970109802FFE014AD5C73073
:10026000D10780E00807B1F74AD34FC5C9CECF9276
:10027000DF92EF92FF920F931F93CF93DF936C0166
:100280007A018B01C0E0D0E0CE15DF0589F0D801FE
:100290006D918D01D601ED91FC910190F081E02DE1
:1002A000C6011995892B11F47E0102C02196ECCF6D
:1002B000C701DF91CF911F910F91FF90EF90DF90D9
:1002C000CF900895089580E090E00895FC01538D4B
:1002D000448D252F30E0842F90E0821B930B541720
:1002E00010F0CF96089501970895FC01918D828DAD
:1002F000981761F0828DDF01A80FB11D5D968C917A
:10030000928D9F5F9F73928F90E008958FEF9FEF84
:100310000895FC01918D828D981731F0828DE80F40
:10032000F11D858D90E008958FEF9FEF0895FC01FA
:10033000918D228D892F90E0805C9F4F821B9109C7
:100340008F739927089588EF92E0F1DF21E0892BE0
:1003500009F420E0822F0895FC01848DDF01A80FAD
:10036000B11DA35ABF4F2C91848D90E001968F73DD
:100370009927848FA689B7892C93A089B1898C91FC
:1003800080648C93938D848D981306C00288F389C2
:10039000E02D80818F7D80830895EF92FF920F93EF
:1003A0001F93CF93DF93EC0181E0888F9B8D8C8D21
:1003B000981305C0E889F989808185FD23C0F62E50
:1003C0000B8D10E00F5F1F4F0F731127E02E8C8DE8
:1003D000E8120BC00FB607FCFACFE889F9898081D3
:1003E00085FFF5CFCE01B8DFF2CF8B8DFE01E80F90
:1003F000F11DE35AFF4FF0820B8FEA89FB89808160
:10040000806207C0EE89FF896083E889F98980816D
:100410008064808381E090E0DF91CF911F910F9104
:10042000FF90EF900895CF93DF93EC01888D8823A0
:10043000C1F0EA89FB89808185FD05C0A889B98959
:100440008C9186FD0EC00FB607FCF5CF808185FF2D
:10045000F2CFA889B9898C9185FFEDCFCE017CDFE1
:10046000E8CFDF91CF91089580E090E0892B19F0DB
:100470006ADF811125C080E090E0892B41F080E0A7
:1004800090E0892B21F00E94000081111CC080E0C7
:1004900090E0892B41F080E090E0892B21F00E94D0
:1004A0000000811113C080E090E0892BA1F080E072
:1004B00090E0892B81F00E94000081110AC008950C
:1004C0000E940000D8CF0E940000E1CF0E940000EF
:1004D000EACF0C940000089590E0FC013197E231DE
:1004E000F10508F04DC08827EE58FF4F8F4F01C42B
:1004F000809180008F7703C0809180008F7D8093F2
:100500008000089580918000877FF9CF84B58F7730
:1005100002C084B58F7D84BD08958091B0008F772F
:1005200003C08091B0008F7D8093B00008958091CA
:1005300090008F7707C0809190008F7D03C08091DD
:100540009000877F8093900008958091A0008F771E
:1005500007C08091A0008F7D03C08091A000877F9D
:100560008093A0000895809120018F7707C080912B
:1005700020018F7D03C080912001877F809320011F
:1005800008951F93CF93DF93282F30E0F901E853AC
:10059000FE4F8491F901EE57FE4FD491F901E45CCE
:1005A000FE4FC491CC23C1F0162F811195DFEC2FA3
:1005B000F0E0EE0FFF1FEE5DFE4FA591B4918FB7F7
:1005C000F894111105C09C91ED2FE095E92302C02C
:1005D000EC91ED2BEC938FBFDF91CF911F9108959C
:1005E000CF93DF9390E0FC01EE57FE4F2491FC0186
:1005F000E45CFE4F8491882361F190E0880F991F9D
:10060000FC01E85FFE4FC591D491FC01EE5DFE4F09
:10061000A591B491611109C09FB7F8948881209584
:1006200082238883EC912E230BC0623061F49FB744
:10063000F8943881822F809583238883EC912E2B28
:100640002C939FBF06C08FB7F894E8812E2B288388
:100650008FBFDF91CF9108953FB7F8948091EF025B
:100660009091F002A091F102B091F20226B5A89B00
:1006700005C02F3F19F00196A11DB11D3FBFBA2F34
:10068000A92F982F8827820F911DA11DB11DBC0194
:10069000CD0142E0660F771F881F991F4A95D1F759
:1006A00008958627082E8295807F8025092E982F11
:1006B00082958F700826869598278927880F880F3E
:1006C000880F802508951DD31F920F920FB60F92A9
:1006D00011240BB60F922F933F934F935F936F9319
:1006E0007F938F939F93AF93BF93EF93FF9388EF85
:1006F00092E032DEFF91EF91BF91AF919F918F9188
:100700007F916F915F914F913F912F910F900BBE11
:100710000F900FBE0F901F9018951F920F920FB65B
:100720000F9211240BB60F922F938F939F93EF93F9
:10073000FF93E0910803F09109038081E0910E039B
:10074000F0910F0382FD12C09081809111038F5FA1
:100750008F7320911203821751F0E0911103F0E0A2
:10076000E850FD4F958F8093110301C08081FF9168
:10077000EF919F918F912F910F900BBE0F900FBE15
:100780000F901F9018951F920F920FB60F92112481
:100790002F933F938F939F93AF93BF938091EB02DF
:1007A0009091EC02A091ED02B091EE023091EA023C
:1007B00023E0230F2D3720F40196A11DB11D05C0A4
:1007C00026E8230F0296A11DB11D2093EA02809313
:1007D000EB029093EC02A093ED02B093EE028091B5
:1007E000EF029091F002A091F102B091F202019615
:1007F000A11DB11D8093EF029093F002A093F1022E
:10080000B093F202BF91AF919F918F913F912F9141
:100810000F900FBE0F901F9018951F920F920FB65A
:100820000F9211240BB60F922F933F934F935F9328
:100830006F937F938F939F93AF93BF93CF93DF93E8
:10084000EF93FF938091F702882301F18091F302E7
:1008500091E0980F9093F302811118C0C091F502B6
:100860008091F602C817C8F060E08AE08ADE60E096
:100870008091000286DE1092F7028091E80290914A
:10088000E90201969093E9028093E8028091F302D5
:10089000883000F11092F3021DC0EC2FF0E0EF5F02
:1008A000FD4F90818091F402D1E0D80FD093F402F3
:1008B00061E070E001C0660F8A95EAF769238091D4
:1008C00000025FDED63010F31092F402CF5FC093C7
:1008D000F502DCCFFF91EF91DF91CF91BF91AF9106
:1008E0009F918F917F916F915F914F913F912F9148
:1008F0000F900BBE0F900FBE0F901F901895CF93C7
:10090000DF93CDB7DEB72E970FB6F894DEBF0FBEDC
:10091000CDBF789484B5826084BD84B5816084BD88
:1009200085B5826085BD85B5816085BD80916E008D
:10093000816080936E0010928100809181008260BE
:1009400080938100809181008160809381008091FB
:1009500080008160809380008091B10084608093EA
:10096000B1008091B00081608093B00080919100CF
:1009700082608093910080919100816080939100CA
:10098000809190008160809390008091A1008260AE
:100990008093A1008091A10081608093A10080914B
:1009A000A00081608093A0008091210182608093EB
:1009B000210180912101816080932101809120019A
:1009C00081608093200180917A00846080937A0016
:1009D00080917A00826080937A0080917A008160B1
:1009E00080937A0080917A00806880937A001092D8
:1009F000C100E0910803F091090382E08083E09157
:100A00000403F09105031082E0910603F0910703BF
:100A10008FEC808310921003E0910C03F0910D0392
:100A200086E08083E0910A03F0910B03808180616E
:100A30008083E0910A03F0910B03808188608083BA
:100A4000E0910A03F0910B03808180688083E0913C
:100A50000A03F0910B0380818F7D808349E050E091
:100A600069ED72E088EF92E002DC42E050E063EE74
:100A700072E088EF92E0FBDB8EE0E9EAF2E0DE0173
:100A8000119601900D928A95E1F77E0123E0E20E26
:100A9000F11C11E0812CF4E29F2EF4EFAF2EB12C6B
:100AA000A0E84A2EAEE35A2E612C712CF701219159
:100AB00031917F0140E050E0C501B401F8D0CA0196
:100AC000B901A3019201F3D022303105410551054E
:100AD00020F41F5F173051F724C0163011F1112395
:100AE00001F11092800088E0809381008091810064
:100AF000182B1093810030938900209388008091F7
:100B00006F00826080936F0061E08091000268DD79
:100B100060E08BE065DD61E08AE062DD60E08AE054
:100B200030DD82E0809300026DE0F62E76E1E72E64
:100B3000E0E1DE2E88EF92E0FADB181619060CF0E1
:100B400063C088EF92E0D1DB8C018091F7028111C4
:100B5000FCCF64E08FEF9FEFA4DDF0920902E092FA
:100B60000A02602F9EDDF801FF2724E0F595E79546
:100B70002A95E1F7E753FD4F208120930B020F7078
:100B8000E02FF0E0E753FD4F208120930C02809589
:100B90009095FC0134E0F695E7953A95E1F7EF7012
:100BA000FF27E753FD4F208120930D02FC01EF70DA
:100BB000FF27E753FD4F208120930E02FC01EF2F0A
:100BC000FF27E295EF70E753FD4F208120930F023E
:100BD000E92FFF27EF70FF27E753FD4F80818093B8
:100BE0001002D092F6021092F5021092F4021092C6
:100BF000F30261E08AE0C5DC81E08093F702809136
:100C0000F7028111FCCF96CF27DD2B013C0188EC48
:100C1000882E912CA12CB12C1FDDDC01CB01841975
:100C20009509A609B709883E9340A105B10558F07A
:100C3000F1E08F1A9108A108B10828EE420E23E0D6
:100C4000521E611C711C81149104A104B10421F78E
:100C50000BDC70CFE8EFF2E01382128288EE93E0B3
:100C6000A0E0B0E084839583A683B7838BEB92E00A
:100C70009183808385EC90E09587848784EC90E075
:100C80009787868780EC90E0918B808B81EC90E059
:100C9000938B828B82EC90E0958B848B86EC90E03A
:100CA000978B868B118E128E138E148E0895A1E26F
:100CB0001A2EAA1BBB1BFD010DC0AA1FBB1FEE1FD6
:100CC000FF1FA217B307E407F50720F0A21BB30B21
:100CD000E40BF50B661F771F881F991F1A9469F79D
:100CE00060957095809590959B01AC01BD01CF01F9
:100CF0000895EE0FFF1F881F8BBF0790F691E02D20
:0E0D0000199481E090E0F89400C0F894FFCFC1
:100D0E000C2A2A2A2A2A2A382C0000000000000069
:100D1E0000000000000000000000000000000000C5
:100D2E0000000000000000000000000000000000B5
:100D3E0000000000000000000000000000000000A5
:100D4E000000000000000000000000000000000095
:100D5E000000000000000000000000000000000085
:100D6E000000000000000000000000000000000075
:100D7E000000000000000000000000000000000065
:100D8E000000000000000000000000000000000055
:100D9E000000000000000000000000000000000045
:100DAE0000000000000000000000000100080040EC
:100DBE000000010004050D00000000CD01370166A2
:100DCE000113029701750189010D0E131516191ADB
:100DDE001C232526292A2C3234456D69736F722007
:060DEE005246000D0A0050
:00000001FF
