:1000000014C1000040C100003EC100003CC100001E
:100010003AC1000038C1000036C1000034C1000000
:1000200032C1000030C100002EC100002CC1000010
:100030002AC1000028C1000026C1000024C1000020
:1000400022C10000C0C300001EC100001CC100008E
:100050001AC1000018C1000016C100006AC30000E8
:1000600012C1000030C3000005C300000CC1000035
:100070000AC1000008C1000006C1000004C1000060
:1000800002C1000000C10000FEC00000FCC0000072
:10009000FAC00000F8C00000F6C00000F4C0000084
:1000A000F2C00000F0C00000EEC00000ECC0000094
:1000B000EAC00000E8C00000E6C00000E4C00000A4
:1000C000E2C00000E0C00000DEC00000DCC00000B4
:1000D000DAC00000D8C00000D6C00000D4C00000C4
:1000E000D2C0000093029602850289028F02CD02DF
:1000F0009A029E02A402A802AC02B202B602BA029E
:10010000CD02C002C402C802000020002300260065
:1001100029002C002F00320000010000030106011D
:10012000090100002100240027002A002D003000D2
:10013000330001010000040107010A010000220050
:10014000250028002B002E003100340002010000A1
:10015000050108010B010505050507050808080844
:10016000020202020A0A080804040404010101014F
:10017000010101010303030303030303040707074A
:100180000C0C0C0C0C0C0C0C0202020206060606EF
:10019000060606060B0B0B0B0B0B0B0B01021020BC
:1001A00020080810204010204080020102010804AD
:1001B0000201010204081020408080402010080441
:1001C000020180040201804020100804020108049A
:1001D00002010102040810204080010204081020DE
:1001E000408000000A0B02090C0D0E0807030401F1
:1001F00000000000000000000000000000000000FF
:1002000000000000000000000000000000001211CB
:1002100010000000000000000000000000000000CE
:100220000000000000000000840611241FBECFEF74
:10023000D1E2DEBFCDBF00E00CBF12E0A0E0B2E033
:10024000E4EDFDE000E00BBF02C007900D92AA3381
:10025000B107D9F723E0AAE3B2E001C01D92A234AE
:10026000B207E1F711E0C5E1D1E000E005C0219758
:100270000109802FFE0197D5C431D10780E008071E
:10028000B1F7E0D3A5C5BCCECF92DF92EF92FF923B
:100290000F931F93CF93DF936C017A018B01C0E022
:1002A000D0E0CE15DF0589F0D8016D918D01D60122
:1002B000ED91FC910190F081E02DC6011995892BFB
:1002C00011F47E0102C02196ECCFC701DF91CF91DE
:1002D0001F910F91FF90EF90DF90CF9008950895B8
:1002E00080E090E00895FC01538D448D252F30E08F
:1002F000842F90E0821B930B541710F0CF96089533
:1003000001970895FC01918D828D981761F0828D7F
:10031000DF01A80FB11D5D968C91928D9F5F9F7339
:10032000928F90E008958FEF9FEF0895FC01918DDB
:10033000828D981731F0828DE80FF11D858D90E048
:1003400008958FEF9FEF0895FC01918D228D892FE5
:1003500090E0805C9F4F821B91098F7399270895CD
:1003600083E592E0F1DF21E0892B09F420E0822F80
:100370000895FC01848DDF01A80FB11DA35ABF4F62
:100380002C91848D90E001968F739927848FA68994
:10039000B7892C93A089B1898C9180648C93938DBB
:1003A000848D981306C00288F389E02D80818F7DAB
:1003B00080830895EF92FF920F931F93CF93DF9363
:1003C000EC0181E0888F9B8D8C8D981305C0E889A6
:1003D000F989808185FD23C0F62E0B8D10E00F5F1B
:1003E0001F4F0F731127E02E8C8DE8120BC00FB634
:1003F00007FCFACFE889F989808185FFF5CFCE0126
:10040000B8DFF2CF8B8DFE01E80FF11DE35AFF4FED
:10041000F0820B8FEA89FB898081806207C0EE89B8
:10042000FF896083E889F98980818064808381E025
:1004300090E0DF91CF911F910F91FF90EF90089581
:10044000CF93DF93EC01888D8823C1F0EA89FB8983
:10045000808185FD05C0A889B9898C9186FD0EC073
:100460000FB607FCF5CF808185FFF2CFA889B98947
:100470008C9185FFEDCFCE017CDFE8CFDF91CF916E
:10048000089580E090E0892B19F06ADF811125C082
:1004900080E090E0892B41F080E090E0892B21F012
:1004A0000E94000081111CC080E090E0892B41F087
:1004B00080E090E0892B21F00E940000811113C0A0
:1004C00080E090E0892BA1F080E090E0892B81F022
:1004D0000E94000081110AC008950E940000D8CF38
:1004E0000E940000E1CF0E940000EACF0C940000BF
:1004F000089590E0FC013197E231F10508F04DC01C
:100500008827EE58FF4F8F4F4EC4809180008F7721
:1005100003C0809180008F7D80938000089580913A
:100520008000877FF9CF84B58F7702C084B58F7D37
:1005300084BD08958091B0008F7703C08091B00092
:100540008F7D8093B0000895809190008F7707C0D1
:10055000809190008F7D03C080919000877F809371
:10056000900008958091A0008F7707C08091A0002F
:100570008F7D03C08091A000877F8093A0000895A5
:10058000809120018F7707C0809120018F7D03C06B
:1005900080912001877F8093200108951F93CF933E
:1005A000DF93282F30E0F901EE51FE4F8491F901DD
:1005B000E456FE4FD491F901EA5AFE4FC491CC2380
:1005C000C1F0162F811195DFEC2FF0E0EE0FFF1F29
:1005D000E45CFE4FA591B4918FB7F894111105C05A
:1005E0009C91ED2FE095E92302C0EC91ED2BEC936B
:1005F0008FBFDF91CF911F910895CF93DF9390E04C
:10060000FC01E456FE4F2491FC01EA5AFE4F84910E
:10061000882361F190E0880F991FFC01EE5DFE4F89
:10062000C591D491FC01E45CFE4FA591B491611198
:1006300009C09FB7F8948881209582238883EC9124
:100640002E230BC0623061F49FB7F8943881822F5B
:10065000809583238883EC912E2B2C939FBF06C01B
:100660008FB7F894E8812E2B28838FBFDF91CF912D
:100670000895A1D31F920F920FB60F9211240BB6BB
:100680000F922F933F934F935F936F937F938F932B
:100690009F93AF93BF93EF93FF9383E592E069DE5F
:1006A000FF91EF91BF91AF919F918F917F916F914A
:1006B0005F914F913F912F910F900BBE0F900FBE06
:1006C0000F901F9018951F920F920FB60F92112442
:1006D0000BB60F922F938F939F93EF93FF93E0911D
:1006E0006302F09164028081E0916902F0916A02F4
:1006F00082FD12C0908180916C028F5F8F73209178
:100700006D02821751F0E0916C02F0E0ED5AFD4F5E
:10071000958F80936C0201C08081FF91EF919F9132
:100720008F912F910F900BBE0F900FBE0F901F90C7
:1007300018951F920F920FB60F9211242F933F938B
:100740008F939F93AF93BF9380914D0290914E02F0
:10075000A0914F02B091500230914C0223E0230F40
:100760002D3720F40196A11DB11D05C026E8230FE9
:100770000296A11DB11D20934C0280934D029093CF
:100780004E02A0934F02B093500280914802909184
:100790004902A0914A02B0914B020196A11DB11DE0
:1007A0008093480290934902A0934A02B0934B026F
:1007B000BF91AF919F918F913F912F910F900FBE5D
:1007C0000F901F9018951F920F920FB60F92112441
:1007D0000BB60F921F932F933F934F935F936F939B
:1007E0007F938F939F93AF93BF93CF93DF93EF93B9
:1007F000FF9310915202112329F180914702811138
:1008000021C02091000230E0F901EE51FE4F8491A9
:10081000F901E456FE4FD491F901EA5AFE4FC49112
:10082000CC2351F1811165DEEC2FF0E0EE0FFF1FBC
:10083000E85FFE4FA591B491EC91ED2381E0E1F0EA
:100840008093460280914702882341F080914502BF
:1008500091E0980F90934502882381F080914502A2
:10086000883010F010924502112309F4D5C0409150
:1008700047024423A9F0D0C080E0E2CF60E08AE0E4
:100880008DDE60E08CE08ADE1092470280914302A8
:100890009091440201969093440280934302DECFEC
:1008A00080914602882329F0909142029F5F9093A5
:1008B00042022091410290914002821759F09035F6
:1008C00010F02DE101C02BE0920F90934002809335
:1008D000410203C09C5E9093400290914002903A86
:1008E00008F49AC020913E0230913F023695279538
:1008F00030933F0220933E0280914202853028F0DF
:10090000386030933F0220933E02905A9093400209
:100910001092420280915102882309F46DC0909197
:100920003D029F5F90933D029C3008F475C020917A
:100930003E0230913F02822F8F73982F96959695A5
:10094000987058E0590F951749F0E92FF0E0E15FF2
:10095000FD4F6081861719F09F5FF5CF90E050E161
:10096000959FC001112496E0369527959A95E1F759
:10097000522F3695279536952795287038E0320FF7
:10098000231751F0E22FF0E0E15FFD4F6081561731
:1009900011F02F5FF5CF422F842B909140039111DE
:1009A0000EC080933C029CEF980F9D3440F0109253
:1009B000510280913B028F5F80933B022DC0E091FA
:1009C000400391E09E0F90934003F0E0E051FD4F13
:1009D00080839091400380913C02981750F01092D0
:1009E000510280913A028F5F80933A0281E08093B6
:1009F000410310923D0210C080913E0290913F024F
:100A000088339B4049F481E08093510210923D026B
:100A10001092400310924103FF91EF91DF91CF912B
:100A2000BF91AF919F918F917F916F915F914F9106
:100A30003F912F911F910F900BBE0F900FBE0F9003
:100A40001F901895CF93DF93CDB7DEB72E970FB6D3
:100A5000F894DEBF0FBECDBF789484B5826084BDAC
:100A600084B5816084BD85B5826085BD85B58160B2
:100A700085BD80916E00816080936E001092810030
:100A800080918100826080938100809181008160EB
:100A900080938100809180008160809380008091AC
:100AA000B10084608093B1008091B0008160809338
:100AB000B0008091910082608093910080919100BC
:100AC000816080939100809190008160809390007C
:100AD0008091A10082608093A1008091A10081603B
:100AE0008093A1008091A00081608093A0008091FC
:100AF0002101826080932101809121018160809396
:100B000021018091200181608093200180917A00F1
:100B1000846080937A0080917A00826080937A006A
:100B200080917A00816080937A0080917A00806859
:100B300080937A001092C100E0916302F091640208
:100B400082E08083E0915F02F09160021082E09188
:100B50006102F09162028FEC808310926B02E0914F
:100B60006702F091680286E08083E0916502F0916F
:100B70006602808180618083E0916502F091660267
:100B8000808188608083E0916502F09166028081B7
:100B900080688083E0916502F091660280818F7D9C
:100BA000808345E050E061E372E083E592E06CDB36
:100BB00042E050E067E372E083E592E065DB8EE0BF
:100BC000E1E0F2E0DE01119601900D928A95E1F7E5
:100BD0007E0123E0E20EF11C11E0812C84E2982ECC
:100BE00084EFA82EB12C90E8492E9EE3592E612C5B
:100BF000712CF701219131917F0140E050E0C50156
:100C0000B401AFD0CA01B901A3019201AAD0223028
:100C100031054105510520F41F5F173051F724C0FD
:100C2000163011F1112301F11092800088E08093B9
:100C3000810080918100182B1093810030938900EE
:100C40002093880080916F00826080936F0061E044
:100C50008CE0D3DC60E080910002CFDC61E08AE0D0
:100C6000CCDC60E08AE09ADC82E080930002809134
:100C70005202811105C081E080935202109251020C
:100C800061E08DE0BADC60E08DE088DC80914103BA
:100C9000882309F437C08091400341E050E083305D
:100CA00011F440E050E061EF72E0CE01019687D090
:100CB0001092410320914003E0EFF2E08FEF9FEFAD
:100CC000215098F031918327082E8295807F8025CE
:100CD000092E982F82958F70082686959827892748
:100CE000880F880F880F8025EBCF883B904F51F4F9
:100CF0008981813611F461E003C0823619F460E025
:100D00008DE04CDCBEDBC2CFE3E5F2E01382128261
:100D100088EE93E0A0E0B0E084839583A683B78358
:100D200083E292E09183808385EC90E095878487CD
:100D300084EC90E09787868780EC90E0918B808BA5
:100D400081EC90E0938B828B82EC90E0958B848B8E
:100D500086EC90E0978B868B118E128E138E148EFC
:100D60000895A1E21A2EAA1BBB1BFD010DC0AA1FEC
:100D7000BB1FEE1FFF1FA217B307E407F50720F004
:100D8000A21BB30BE40BF50B661F771F881F991F7F
:100D90001A9469F760957095809590959B01AC01C8
:100DA000BD01CF010895EE0FFF1F881F8BBF079075
:100DB000F691E02D199481E090E0F89409C0FB01D0
:100DC000DC0102C001900D9241505040D8F70895C7
:040DD000F894FFCFC5
:100DD4000B000001000800400000010004050D0D97
:100DE4000E131516191A1C232526292A2C32340011
:100DF400000000DA01440173012002A4018201967B
:0A0E0400017365747570000D0A009B
:00000001FF
