:100000000AC2000039C2000037C2000035C2000039
:1000100033C2000031C200002FC200002DC2000018
:100020002BC2000029C2000027C2000025C2000028
:1000300023C2000021C200001FC200001DC2000038
:100040001BC200000C94750817C2000015C2000006
:1000500013C2000011C200000FC200000C94E70E92
:100060000BC200000C94B80D0C948F0D05C200005B
:1000700003C2000001C20000FFC10000FDC100007A
:10008000FBC10000F9C10000F7C10000F5C100008C
:10009000F3C10000F1C10000EFC10000EDC100009C
:1000A000EBC10000E9C10000E7C10000E5C10000AC
:1000B000E3C10000E1C10000DFC10000DDC10000BC
:1000C000DBC10000D9C10000D7C10000D5C10000CC
:1000D000D3C10000D1C10000CFC10000CDC10000DC
:1000E000CBC10000090E0C0EFB0DFF0D050E430EDB
:1000F000100E140E1A0E1E0E220E280E2C0E300E8E
:10010000430E360E3A0E3E0E000005072061000039
:1001100000000000005F00000007000700147F14CB
:100120007F14242A7F2A1223130864623649552239
:10013000500005030000001C2241000041221C0069
:10014000082A1C2A0808083E080800503000000849
:1001500008080808006060000020100804023E51F2
:1001600049453E00427F4000426151494621414598
:100170004B311814127F1027454545393C4A4949EF
:100180003001710905033649494936064949291E96
:1001900000363600000056360000000814224114D4
:1001A00014141414412214080002015109063249A2
:1001B00079413E7E1111117E7F494949363E4141C8
:1001C00041227F4141221C7F494949417F09090160
:1001D000013E414151327F0808087F00417F4100C4
:1001E0002040413F017F081422417F404040407F32
:1001F0000204027F7F0408107F3E4141413E7F0997
:100200000909063E4151215E7F091929464649499F
:10021000493101017F01013F4040403F1F20402004
:100220001F7F2018207F63140814630304780403DD
:10023000615149454300007F4141020408102041BB
:10024000417F0000040201020440404040400001A0
:1002500002040020545454787F48444438384444BD
:100260004420384444487F3854545418087E0901C7
:1002700002081454543C7F0804047800447D400074
:100280002040443D00007F10284400417F40007C16
:10029000041804787C0804047838444444387C14F6
:1002A000141408081414187C7C08040408485454D6
:1002B0005420043F4440203C4040207C1C204020EF
:1002C0001C3C4030403C44281028440C5050503CCA
:1002D0004464544C44000836410000007F00000094
:1002E0004136080008082A1C08081C2A08080006CD
:1002F000090906000020002300260029002C002FF9
:100300000032000001000003010601090100002184
:1003100000240027002A002D0030003300010100D6
:1003200000040107010A0100002200250028002B1B
:10033000002E003100340002010000050108010B0D
:100340000105050505070508080808020202020A5A
:100350000A08080404040401010101010101010368
:1003600003030303030303040707070C0C0C0C0C23
:100370000C0C0C0202020206060606060606060B16
:100380000B0B0B0B0B0B0B0102102020080810208D
:100390004010204080020102010804020101020411
:1003A00008102040808040201008040201800402D0
:1003B0000180402010080402010804020101020427
:1003C0000810204080010204081020408000000A2C
:1003D0000B02090C0D0E08070304010000000000C9
:1003E000000000000000000000000000000000000D
:1003F00000000000000000000012111000000000CA
:1004000000000000000000000000000000000000EC
:1004100000000000F21611241FBECFEFD1E2DEBFB4
:10042000CDBF00E00CBF13E0A0E0B2E0E4E6F6E3ED
:1004300000E00BBF02C007900D92A232B107D9F7BE
:1004400024E0A2E2B3E001C01D92AB34B207E1F7B1
:1004500012E0CBE0D2E000E006C021970109802F36
:10046000FE010E94F418CA30D10780E00807A9F7FE
:100470000E9488120C94301BC3CDFC018491089516
:10048000089580E090E008957F928F929F92AF92BE
:10049000BF92CF92DF92EF92FF920F931F93CF9371
:1004A000DF936C01F62E041B0F5F261B9924939497
:1004B000920E842F8770142F181BA02EB12C28E0C9
:1004C00030E0A901481B5109A416B5065CF42A19AD
:1004D0003B09CFEFD0E002C0D595C7952A95E2F74A
:1004E000802E04C098E0892E881ACFEF01C0CC0F6F
:1004F0008A95EAF77C2E412F6F2DC6010E94650F69
:10050000D0E0C095D91578F4C6010E94A00F9FEFE6
:10051000682FE91202C0672901C06C23C6010E943E
:10052000C80FDF5FEFCFC12F811A282D2C0F822F2C
:1005300090E0AC01495F5F4F4A155B057CF4C85FF2
:100540004C2F6F2DC6010E94650FD0E0D91568F7BA
:100550006E2DC6010E94C80FDF5FF8CF201720F56F
:10056000A81AB90A8FEF90E001C0880FAA94EAF7A1
:10057000D82FD09548E04C0F6F2DC6010E94650F13
:10058000C0E01D2F1095C91578F4C6010E94A00F78
:100590009FEF682FE91202C06D2B01C06123C601D5
:1005A0000E94C80FCF5FEFCFDF91CF911F910F91C6
:1005B000FF90EF90DF90CF90BF90AF909F908F9083
:1005C0007F9008952F923F924F925F926F927F9209
:1005D0008F929F92AF92BF92CF92DF92EF92FF9253
:1005E0000F931F93CF93DF93CDB7DEB766970FB608
:1005F000F894DEBF0FBECDBFDC0115962D913C9166
:1006000016972115310519F480E090E04FC5162F9B
:100610009E8B8D8BC9010396E0917B03F0917C0347
:100620006A3009F045C21995F82EE0917B03F091EC
:100630007C03AD89BE8915968D919C91169719956D
:1006400081110DC0ED89FE8985819681E0917B0342
:10065000F0917C0301961995813009F479C2AD8936
:10066000BE891C966C911C9719962C91199762174C
:1006700080F41D964C911D9781E014969C919F3FAC
:1006800009F480E0E82EE1940F2D040F8D899E89F6
:10069000FBDEED89FE89838595852F2D30E080FD79
:1006A00003C10285602F70E0220F331F290F311D17
:1006B000261737070CF4F0C08685811106C081E04B
:1006C000AD89BE891E968C93EFC421E0290F201BB3
:1006D0009F2C990C920E91E0ED89FE8984818F3FC9
:1006E00009F490E0E92EE194AD89BE8919967C90D9
:1006F000199718964C9118971796DC90892D90E0D1
:10070000840F911D68177907BCF0242F277081E0B2
:1007100090E001C0880F2A95EAF788248A94880E11
:10072000B42FB87F6B2EC92CC40EEC2DE87F5E2E43
:10073000AA24A394B12C56C0272D6D2D8D899E8996
:10074000A3DE9DC0222D30E0832D877002C0359539
:1007500027958A95E2F7312F377020FF07C0C50132
:10076000032E01C0880F0A94EAF7482A3394832D98
:10077000877009F453C0373069F4412F487F6D2DDD
:100780008D899E890E94650F642D8D899E890E94A6
:10079000C80F412C132D19190315A0F6312E390C51
:1007A000212F277013114DC0E1F05FEF510F452F3E
:1007B000487F6D2D8D899E892C8B0E94650F8D89B8
:1007C0009E890E94A00F2C89B50101C0660F2A9551
:1007D000EAF761958623682F64298D899E890E9496
:1007E000C80FD3947D1408F44AC0462D6D2D8D8911
:1007F0009E890E94650F8D899E890E94A00F482EB8
:1008000048203C2C452D6D2D8D899E890E94650FB9
:100810008D899E890E94A00F282EBCCFFFE3F3157F
:1008200008F4A9CF432D487F6D2D8D899E893B8B80
:100830000E94650F8D899E890E94A00F282E3B89FA
:100840009ACF3FEFC501022E01C0880F0A94EAF744
:10085000E31202C0482A02C080954822273069F47A
:10086000412F487F6D2D8D899E890E94650F642DD3
:100870008D899E890E94C80F412C1F5F91CFAD8941
:10088000BE8917968C9117971C968C931C971A9675
:100890008C911A978F1909C1ED89FE898781848708
:1008A0009F5F9F0D958700C4AD89BE891896DC9027
:1008B00018974D2D50E0692F70E0240F351F261733
:1008C00037075CF417968C9117971C968C931C979E
:1008D00091509F191D969C93E7C3ED89FE898685EB
:1008E000882309F4ECCE9F5F9D19192F1F0D91E00D
:1008F00084818F3F09F490E0E92EE194AD89BE89AF
:100900001A960C911A9719969C9019971796FC9025
:10091000410F511D802F90E084179507D4F0202FB0
:1009200027702F5F81E090E001C0880F2A95EAF7D9
:10093000C82EC194202F287F2983702E711A372D3D
:10094000387F532EAA24A394B12C81E0882E811ADB
:1009500066C0292D4D2D6F2D8D899E8995DD9AC0FC
:100960002A94822D8770873061F4422D487F6F2D45
:100970008D899E890E94650F8D899E890E94A00F96
:10098000682E2D1430F1262D30E0822D877002C0A4
:10099000359527958A95E2F7832D877020FF07C04C
:1009A0009501082E01C0220F0A94EAF7422A81110C
:1009B0000DC0432D487F6F2D8D899E890E94650F44
:1009C000642D8D899E890E94C80F412C3A94211074
:1009D000C7CF212E632C611A462D420D21103BC03A
:1009E000982D930D892F8770382EC1F0492F487F9D
:1009F0006F2D8D899E890E94650F8D899E890E9429
:100A0000A00FB50101C0660F3A94EAF76150862342
:100A1000682F64298D899E890E94C80FF3949F14C2
:100A2000C8F149816F2D8D899E890E94650F8D893E
:100A30009E890E94A00F482E4C20272C452D6F2DFB
:100A40008D899E890E94650F8D899E890E94A00FC5
:100A5000682E302E96CF842F87705FEFB501082E59
:100A600001C0660F0A94EAF7E51202C0462A02C0E6
:100A70006095462281110CC0487F6F2D8D899E891B
:100A80000E94650F642D8D899E890E94C80F412C9C
:100A90002A94A2CFAD89BE8917968C9117971C9680
:100AA0008C931C9718968C9118971D968C93FCC26A
:100AB0001995E82EED89FE8985819681E0917B0369
:100AC000F0917C0304961995082FAD89BE8915967F
:100AD0008D919C911697E0917B03F0917C03059694
:100AE0001995101708F490CD212F30E0A82EB12CC5
:100AF000A501400F511DC901841795070CF084CD45
:100B00002E2D30E03D832C83690137E0C30ED11CCC
:100B100073E0D594C7947A95E1F7101BE0917B03BD
:100B2000F0917C03AD89BE8915968D919C911697A5
:100B3000199581110FC0ED89FE8985819681E0911B
:100B40007B03F0917C0301961995823018F46DC2F5
:100B5000FA9485CD86E0882E912C612C712CAD897C
:100B6000BE8915968D919C911697E0917B03F0912B
:100B70007C032AEF280D211748F4880D991D19953B
:100B8000680E711CFFEF8F1A9F0AE9CF6C9C9001D1
:100B90006D9C300D7C9C300D1124B6E0AB0EB11C69
:100BA000A501420F531F5A834983612F70E06A5F8A
:100BB0007F4F860F971F1995F82E33243394FF200B
:100BC00009F422CDAD89BE891E968C911E9788238B
:100BD00031F06AE0CD01F6DCED89FE891686AD893B
:100BE000BE891B968C911B97CF2CD12C81FF18C0EE
:100BF0001C961C911C9715968D919C911697E091CF
:100C00007B03F0917C030296199590E08C199D0965
:100C100097FD019695958795810FED89FE898487CB
:100C2000AD89BE891C968C911C978601080F111DF9
:100C3000E0917B03F0917C0315968D919C91169722
:100C4000199581110DC0ED89FE8985819681E0910C
:100C50007B03F0917C030196199591E0813009F0B6
:100C600090E0091B1109AD89BE8919968C911997DD
:100C700090E0801791074CF56AE0CD01A3DCED8987
:100C8000FE898685882339F06AE0CF019BDCAD8937
:100C9000BE891E961C92ED89FE89838581FF15C051
:100CA000148585819681E0917B03F0917C03029607
:100CB000199590E08C199D0997FD0196959587955A
:100CC000810FAD89BE891C968C93E0917B03F091D6
:100CD0007C03AD89BE8915968D919C9116971995C7
:100CE0008111C1C1ED89FE8985819681E0917B03E7
:100CF000F0917C0301961995813009F0B4C14E2C16
:100D000010E028E030E08E2D8770A901481B5109C2
:100D10005987488729813A812C0D3D1D398B288BB5
:100D2000642C712C88248394912C141508F042C1F2
:100D3000AD89BE891D965C901D97510E5B82452D35
:100D4000487F1C966C911C97CD010E94650F812FE6
:100D50008695869586958F9D900111243F832E83DD
:100D6000A12CB12C812F90E09C01287F4C815D81CA
:100D7000421B530B5B874A87288939894E815F81E3
:100D8000240F351F3D872C879301281B390B3F8784
:100D90002E870B810770AF1408F0B8C01E1538F508
:100DA0002E813F8149815A81240F351F2A0D3B1D19
:100DB000AD89BE8915968D919C911697E0917B0324
:100DC000F0917C03820F931F1995282E332081F018
:100DD0002A853B85283031055CF4682F70E0088453
:100DE00002C0759567950A94E2F7262E01C0212C62
:100DF000AD89BE8914968C91811101C02094502E2A
:100E00008B81812B877091F42E853F8528303105A9
:100E10006CF0AD89BE891B968C911B9782FF04C034
:100E2000CD010E94A00F282A622D68C08D899E895D
:100E30000E94A00F082F412F2C853D852A0D311DC2
:100E4000642F6770822D90E0062E02C095958795DD
:100E50000A94E2F780FF08C0C401052C01C0880F86
:100E60000A94EAF7082B08C0C401052C01C0880FBA
:100E70000A94EAF780950823673051F5ED89FE89D9
:100E800085819681E0917B03F0917C03820F931F13
:100E90002C8B3B8B4A8B1995282E2C893B894A89B0
:100EA000332079F08C819D81841B910909974CF442
:100EB000622D70E0088402C0759567950A94E2F788
:100EC000262EAD89BE8914968C91811101C0209483
:100ED0004F5F5394B8E05B120DC0602FED89FE891F
:100EE000838582FF0BC08D899E890E94A00F682F89
:100EF000602B04C0441508F4A3CFEFCF8D899E89E1
:100F00000E94C80FFFEFAF1ABF0A43CFE0917B03E7
:100F1000F0917C03AD89BE8915968D919C911697B1
:100F2000199581110CC0ED89FE8985819681E0912A
:100F30007B03F0917C03019619958130C1F1A12EBC
:100F4000B12C011106C0C3018A199B0908970CF046
:100F500092C08D899E89F4D7002309F488C0B4011A
:100F6000002E01C0660F0A94EAF7615093012A1916
:100F70003B09283031054CF4A40102C0440F551F31
:100F80002A95E2F79A012195622BAD89BE891496C4
:100F90009C9191116EC06095682BAD89BE891B969E
:100FA0008C911B9782FD6FC08D899E89F1D7101B94
:100FB000185FBBCEED89FE8984858F0D848783857C
:100FC00081FF19C085819681E0917B03F0917C03BC
:100FD00002961995AD89BE891C962C912F19280F60
:100FE00090E08C199D0997FD019695958795281B92
:100FF000ED89FE892487E0917B03F0917C03AD8924
:10100000BE8915968D919C9116971995811144C0B2
:10101000ED89FE8985819681E0917B03F0917C03C7
:10102000019619958130C1F53FC0AD89BE891596ED
:101030008D919C911697E0917B03F0917C03029631
:101040001995F82E1C9D90011D9D300D1124F29EC6
:10105000C001F39E900D11249C012A5F3F4F3A83FB
:101060002983312CACCD442443944E0C49CE60E00E
:101070007DCF682392CF61E0ED89FE898481811163
:1010800060E061958ACF6F3F09F48ECFCD016A8B06
:1010900057D76A89682B88CFAD89BE891C968C91F9
:1010A0001C978F5F1C968C9381E090E066960FB63C
:1010B000F894DEBF0FBECDBFDF91CF911F910F918E
:1010C000FF90EF90DF90CF90BF90AF909F908F9068
:1010D0007F906F905F904F903F902F9008956D306C
:1010E00009F070CA81E090E008951F920F920FB648
:1010F0000F9211240BB60F922F933F934F935F9350
:101100006F937F938F939F93AF93BF93CF93DF930F
:10111000EF93FF9380912303882331F180917A0329
:10112000811122C02091000230E0F901E353FC4F0D
:101130008491F901E957FC4FD491F901EF5BFC4F21
:10114000C491CC2309F444C0811148D5EC2FF0E0C0
:10115000EE0FFF1FED50FD4FA591B491EC91ED23E3
:1011600081E0B1F18093900380917A03882301F1AB
:1011700080918F0391E0980F90938F03811118C095
:10118000C0918E0380918D03C81720F160E08AE042
:101190007BD560E08091010277D510927A0380912F
:1011A0008B0390918C03019690938C0380938B0317
:1011B00080918F03883010F010928F038091230369
:1011C000882309F4E0C040917A03442301F1DBC095
:1011D00080E0C8CFEC2FF0E0EE5FFD4F9081809172
:1011E0008A03D1E0D80FD0938A0361E070E001C098
:1011F000660F8A95EAF769238091010245D5D630BA
:10120000B8F210928A03CF5FC0938E03D1CF809142
:101210009003882329F0909189039F5F909389031D
:101220002091880390918703821759F0903510F030
:101230002DE101C02BE0920F9093870380938803E8
:1012400003C09C5E9093870390918703903A08F4C3
:101250009AC0209185033091860336952795309367
:1012600086032093850380918903853028F03860B8
:101270003093860320938503905A909387031092AE
:10128000890380912203882309F46DC0909184031F
:101290009F5F909384039C3008F475C02091850370
:1012A00030918603822F8F73982F9695969598701C
:1012B00058E0590F951749F0E92FF0E0E054FD4F41
:1012C0006081861719F09F5FF5CF90E050E1959F00
:1012D000C001112496E0369527959A95E1F7522F93
:1012E0003695279536952795287038E0320F2317C5
:1012F00051F0E22FF0E0E054FD4F6081561711F0FD
:101300002F5FF5CF422F842B9091780391110EC05F
:10131000809383039CEF980F9D3440F0109222033A
:10132000809182038F5F809382032DC0E0917803C8
:1013300091E09E0F90937803F0E0E85DFC4F80838E
:101340009091780380918303981750F010922203B4
:10135000809181038F5F8093810381E08093790383
:101360001092840310C08091850390918603883386
:101370009B4049F481E080932203109284031092F1
:10138000780310927903FF91EF91DF91CF91BF9194
:10139000AF919F918F917F916F915F914F913F910D
:1013A0002F910F900BBE0F900FBE0F901F901895AE
:1013B0008627082E8295807F8025092E982F82957A
:1013C0008F700826869598278927880F880F880FA1
:1013D00080250895CF92DF92EF92FF920F931F9393
:1013E000CF93DF936E3408F09BC020917A032111D4
:1013F000FCCFC62F7C01D3E0D60F6D2F8FEF9FEF70
:10140000D7DFED2FF0E044E0F595E7954A95E1F759
:10141000E054FD4F208120930A02DF70AD2FB0E031
:10142000A054BD4F2C9120930B028701EC2EF12C80
:10143000EE0CFF1CC12CD12CCE14DF0421F1F801DD
:101440006081B6DFD601AE5FBD4FF8012081E22F8B
:10145000F0E034E0F595E7953A95E1F7E054FD4F7B
:1014600020811A962C931A97F80121918F01E22F6F
:10147000EF70F0E0E054FD4F20811B962C93F2E0DA
:10148000CF0ED11CD9CF61E06C0F660FFC01E09547
:10149000F095C62FD0E0C65FDD4FDF0184E0B69542
:1014A000A7958A95E1F7AF70BB27A054BD4F8C91EB
:1014B0008883A1E0A60FB0E0A65FBD4FEF01CF701B
:1014C000DD27C054DD4F88818C93A2E0A60FB0E0E9
:1014D000A65FBD4FEF01CD2FDD27C295CF70C05461
:1014E000DD4F88818C93A3E0A60FB0E0A65FBD4FCF
:1014F000EF2FFF27EF70FF27E054FD4F80818C9383
:10150000645F60938D0310928E0310928A03109291
:101510008F0361E08AE0B8D381E080937A0301C051
:1015200080E0DF91CF911F910F91FF90EF90DF90BE
:10153000CF900895CF92DF92EF92FF920F931F9377
:10154000CF93DF936C017A018B01C0E0D0E0CE1520
:10155000DF0589F0D8016D918D01D601ED91FC91E7
:101560000190F081E02DC6011995892B11F47E01BF
:1015700002C02196ECCFC701DF91CF911F910F914F
:10158000FF90EF90DF90CF900895FC01538D448D34
:10159000252F30E0842F90E0821B930B541710F01E
:1015A000CF96089501970895FC01918D828D98172B
:1015B00061F0828DDF01A80FB11D5D968C91928D37
:1015C0009F5F9F73928F90E008958FEF9FEF089534
:1015D000FC01918D828D981731F0828DE80FF11DFD
:1015E000858D90E008958FEF9FEF0895FC01918D18
:1015F000228D892F90E0805C9F4F821B91098F7311
:10160000992708958AE993E0F1DF21E0892B09F415
:1016100020E0822F0895FC01848DDF01A80FB11D09
:10162000A35ABF4F2C91848D90E001968F73992718
:10163000848FA689B7892C93A089B1898C91806405
:101640008C93938D848D981306C00288F389E02DC6
:1016500080818F7D80830895EF92FF920F931F9377
:10166000CF93DF93EC0181E0888F9B8D8C8D981355
:1016700005C0E889F989808185FD23C0F62E0B8D90
:1016800010E00F5F1F4F0F731127E02E8C8DE812B3
:101690000BC00FB607FCFACFE889F989808185FF76
:1016A000F5CFCE01B8DFF2CF8B8DFE01E80FF11D33
:1016B000E35AFF4FF0820B8FEA89FB8980818062B9
:1016C00007C0EE89FF896083E889F9898081806499
:1016D000808381E090E0DF91CF911F910F91FF9087
:1016E000EF900895CF93DF93EC01888D8823C1F0AC
:1016F000EA89FB89808185FD05C0A889B9898C911B
:1017000086FD0EC00FB607FCF5CF808185FFF2CFB6
:10171000A889B9898C9185FFEDCFCE017CDFE8CF18
:10172000DF91CF91089580E090E0892B19F06ADF76
:10173000811125C080E090E0892B41F080E090E0AD
:10174000892B21F00E94000081111CC080E090E0F4
:10175000892B41F080E090E0892B21F00E9400006D
:10176000811113C080E090E0892BA1F080E090E02F
:10177000892B81F00E94000081110AC008950E9407
:101780000000D8CF0E940000E1CF0E940000EACF05
:101790000C94000008953FB7F894809196039091BF
:1017A0009703A0919803B091990326B5A89B05C013
:1017B0002F3F19F00196A11DB11D3FBFBA2FA92FD0
:1017C000982F8827820F911DA11DB11DBC01CD014D
:1017D00042E0660F771F881F991F4A95D1F7089539
:1017E0000E940D1B0F931F93CF93DF93EC01888111
:1017F0009981009729F02A813B812617370788F4C1
:101800008B016F5F7F4F0E94291A009761F09983C7
:1018100088831B830A832C813D81232B11F4FC01D7
:10182000108281E001C080E0DF91CF911F910F9184
:101830000895CF93DF93EC0188819981009711F08F
:101840000E949119198218821D821C821B821A82A1
:10185000DF91CF910895EF92FF920F931F93CF9353
:10186000DF93EC017B018A01BA01BCDF811103C067
:10187000CE01DFDF07C01D830C83B701888199810A
:101880000E941A1BCE01DF91CF911F910F91FF9003
:10189000EF900895EF92FF920F931F93CF93DF93F2
:1018A000EC01FB0184819581E080F1800C811D8138
:1018B000E114F104A9F00097A9F0080F191FB8016D
:1018C000CE0190DF882361F0288139818C819D8150
:1018D000B701820F931F0E941A1B1D830C8302C045
:1018E000CE01A7DFCE01DF91CF911F910F91FF9025
:1018F000EF900895EF92FF920F931F93CF93DF9392
:101900001F921F92CDB7DEB78C0169831A82FC014A
:10191000E480F580FFEFEF1AFF0AB70163DF882349
:1019200081F0F8012081318184819581BE016F5F52
:101930007F4F820F931F0E941A1BF801F582E482E9
:1019400081E00F900F90DF91CF911F910F91FF9049
:10195000EF900895CF93DF93EC01FB018617970773
:1019600051F0608171816115710521F044815581CB
:1019700072DF01C05EDFCE01DF91CF910895EF925B
:10198000FF920F931F93CF93DF93CDB7DEB762978C
:101990000FB6F894DEBF0FBECDBF8C01CB01F801AE
:1019A00011821082138212821582148250E09E01ED
:1019B0002F5F3F4F7901B9010E945917F70101903C
:1019C0000020E9F73197AF014E195F09B701C8014F
:1019D00042DF62960FB6F894DEBF0FBECDBFDF9137
:1019E000CF911F910F91FF90EF900895FC0111820C
:1019F000108213821282158214826115710549F0DA
:101A0000FB0101900020E9F73197AF01461B570B0E
:101A100022CF08956115710579F0FB010190002036
:101A2000E9F73197AF01461B570BDC01ED91FC91B3
:101A30000280F381E02D199480E090E008954F92A8
:101A40005F926F927F92EF92FF920F931F93CF93CB
:101A5000DF93CDB7DEB7A1970FB6F894DEBF0FBE08
:101A6000CDBF7C01FA01CB0119A2223008F42AE093
:101A70008E010F5D1F4F422E512C612C712CBF0126
:101A8000A30192010E943918F901CA0101501109FC
:101A90006A3014F4605D01C0695CD8016C93232B3B
:101AA000242B252B61F7B801C701B4DFA1960FB62F
:101AB000F894DEBF0FBECDBFDF91CF911F910F9184
:101AC000FF90EF907F906F905F904F900895CF922E
:101AD000DF92EF92FF920F931F93CF93DF93EC016E
:101AE0006A017B01E881F9810190F081E02D6DE2CE
:101AF00019958C0144275527BA014C195D096E09C7
:101B00007F092AE0CE019BDF800F911FDF91CF91EB
:101B10001F910F91FF90EF90DF90CF9008951F924B
:101B20000F920FB60F9211240BB60F922F933F9383
:101B30004F935F936F937F938F939F93AF93BF93D5
:101B4000EF93FF938AE993E066DDFF91EF91BF91F8
:101B5000AF919F918F917F916F915F914F913F9145
:101B60002F910F900BBE0F900FBE0F901F901895E6
:101B70001F920F920FB60F9211240BB60F922F9354
:101B80008F939F93EF93FF93E091AA03F091AB03A0
:101B90008081E091B003F091B10382FD12C0908189
:101BA0008091B3038F5F8F732091B403821751F03C
:101BB000E091B303F0E0E656FC4F958F8093B303BA
:101BC00001C08081FF91EF919F918F912F910F9094
:101BD0000BBE0F900FBE0F901F90189590E0FC0168
:101BE0003197E231F10508F04EC08827EE58FF4FDB
:101BF0008F4F0C94F418809180008F7703C08091F0
:101C000080008F7D80938000089580918000877F81
:101C1000F9CF84B58F7702C084B58F7D84BD0895D8
:101C20008091B0008F7703C08091B0008F7D80934A
:101C3000B0000895809190008F7707C08091900048
:101C40008F7D03C080919000877F809390000895DE
:101C50008091A0008F7707C08091A0008F7D03C086
:101C60008091A000877F8093A0000895809120013B
:101C70008F7707C0809120018F7D03C08091200164
:101C8000877F8093200108951F93CF93DF93282FA0
:101C900030E0F901E353FC4F8491F901E957FC4F1F
:101CA000D491F901EF5BFC4FC491CC23C1F0162F06
:101CB000811194DFEC2FF0E0EE0FFF1FE95DFC4F88
:101CC000A591B4918FB7F894111105C09C91ED2F97
:101CD000E095E92302C0EC91ED2BEC938FBFDF91EF
:101CE000CF911F910895CF93DF9390E0FC01E957C6
:101CF000FC4F2491FC01EF5BFC4F8491882361F140
:101D000090E0880F991FFC01E35FFC4FC591D491CF
:101D1000FC01E95DFC4FA591B491611109C09FB729
:101D2000F8948881209582238883EC912E230BC020
:101D3000623061F49FB7F8943881822F80958323B5
:101D40008883EC912E2B2C939FBF06C08FB7F894FD
:101D5000E8812E2B28838FBFDF91CF9108958F923A
:101D60009F92AF92BF92CF92DF92EF92FF926B0160
:101D70007C0111DD4B015C01C114D104E104F104CB
:101D8000E9F009DDDC01CB0188199909AA09BB0931
:101D9000883E9340A105B10578F321E0C21AD1082D
:101DA000E108F10888EE880E83E0981EA11CB11CA2
:101DB000C114D104E104F10421F7DECFFF90EF90CC
:101DC000DF90CF90BF90AF909F908F9008951F921B
:101DD0000F920FB60F9211242F933F938F939F93DF
:101DE000AF93BF938091920390919303A09194033A
:101DF000B09195033091910323E0230F2D3720F408
:101E00000196A11DB11D05C026E8230F0296A11D54
:101E1000B11D209391038093920390939303A09319
:101E20009403B09395038091960390919703A091AA
:101E30009803B09199030196A11DB11D809396035B
:101E400090939703A0939803B0939903BF91AF9198
:101E50009F918F913F912F910F900FBE0F901F90E8
:101E600018954498439A0895613011F4FADF02C03E
:101E7000449A439811B8429A4198409AC89500C034
:101E80000799FECF40980895609124036295669566
:101E900066956370E9DF429A419A00C0409AC895FE
:101EA00000C080B140980895CF93C62F642FDCDF27
:101EB000429841988FEF81B9C2B900C0409AC89545
:101EC000C89500004098CF9108950F931F93CF932A
:101ED000DF938C0180912403681304C08091250353
:101EE000481749F167FD27C0403428F5942FC62FC5
:101EF0006093240340932503D62FD295D695D6958B
:101F0000D370969596959695ED2FF0E0EC5DFC4F8D
:101F10008281981731F09283692F686B4D2FC80129
:101F2000C3DF6C2F6F7360644D2FC801DF91CF91B9
:101F30001F910F91B9CFDF91CF911F910F9108950C
:101F4000FF920F931F93CF93DF931F92CDB7DEB70E
:101F50006091240367FD14C08C01698395DFC8017B
:101F600093DFF82E8091370469818111F0948FEF0F
:101F70008093240340912503C801A7DF8F2D01C062
:101F800080E00F90DF91CF911F910F91FF90089506
:101F9000BF92CF92DF92EF92FF920F931F93CF9356
:101FA000DF938C01C62FF0902403F7FC8DC0F294D0
:101FB000F694F69483E0F822809125038770E82E4A
:101FC00009F452C0C801BCDFB82E6F2DC8014CDF28
:101FD0004298419A8FEF81B900C0409AD0E0CE2C50
:101FE000D12C9E0101C0220FEA94EAF72B2980919F
:101FF00037048111209522B9C895C89500004098F2
:10200000E09025038E2D90E00896887F803491051E
:1020100034F548E04E0D487F60912403C80155DF38
:10202000C8018EDFB82E6F2DC8011EDF4298419A7D
:102030008FEF81B900C0409A28E030E02C193D09AB
:1020400002C0D595C7952A95E2F7CB298091370430
:102050008111C095C2B9C895C8950000409860919B
:1020600024036F5F4E2D25C06F2DC801FDDE429801
:10207000419A8FEF81B9809137048111C09500C0DA
:10208000409AC2B9C895C895000040986091240351
:102090006F5F60932403862F829586958695837063
:1020A0008F1591F067FD10C08FEF8093240340914E
:1020B0002503C801DF91CF911F910F91FF90EF9001
:1020C000DF90CF90BF9001CFDF91CF911F910F9103
:1020D000FF90EF90DF90CF90BF900895CF93DF9364
:1020E00087FD1FC06034E8F4D42FC62F682F4C2F13
:1020F000487F88E394E0E9DE88E394E021DFC7705D
:1021000061E070E001C0660FCA95EAF7DF3F11F4A5
:10211000682B02C06095682388E394E0DF91CF913B
:1021200037CFDF91CF910895BF92CF92DF92EF9298
:10213000FF920F931F93CF93DF93D82FC62F142FA7
:10214000B02E70E0822F90E02C1718F4681B790BEA
:1021500004C0AC01461B570BBA014D2F50E0812F34
:1021600090E01D1728F4FA01E81BF90BCF0102C01B
:10217000841B950BEE24E3948617970714F0E12C4B
:1021800006C0812F122F282F8D2FDC2FC82F1D174F
:1021900030F48C2FC22F282F8D2FD12F182FD12E16
:1021A000DD1AC21718F4C22ECC1A02C0CC2EC21AE5
:1021B000FD2CF694C21710F00FEF0EC001E00CC01A
:1021C0004B2DEE2061F06D2F8C2F88DFFC18F7FE71
:1021D00002C0C00FFD0CDF5F1D1790F703C06C2F0E
:1021E0008D2FF3CFDF91CF911F910F91FF90EF9043
:1021F000DF90CF90BF9008954F925F926F927F9241
:102200008F929F92AF92BF92CF92DF92EF92FF9206
:102210000F931F93CF93DF93182FC62FB42EE62E64
:10222000F12C81E090E06C01CE18DF08F194E1948C
:10223000F108EE0CFF1C20E2260F60E26C1B042F5D
:10224000412F812F71DFD0E088248394912C40E2CC
:10225000442E5FE1552EDC1798F5D7FC06C0C1501F
:1022600082E0E80EF11CCE0CDF1C662463946D0E38
:1022700082E0880E911CC80CD91C862D810F0B2D75
:10228000742C7C1A272D482F90E2A92EAC0E6A2DB3
:102290004BDF812F8619272D482F6A2D45DFA52C6E
:1022A000AD1ADF5D2A2D8C2F810F482F6D2F3CDF5B
:1022B0002A2D812F8C1B482F6D2F36DFD62DCBCFAB
:1022C000DF91CF911F910F91FF90EF90DF90CF9012
:1022D000BF90AF909F908F907F906F905F904F9046
:1022E0000895EF920F93EE24EA9402E328E642E386
:1022F00065E088E394E00E94440206E328E646E3B2
:1023000065E088E394E00E94440225E042E365E052
:1023100088E394E00E94440228E642E368E688E30A
:1023200094E00E9444020F91EF9008952F923F9203
:102330004F925F926F927F928F929F92AF92BF92D5
:10234000CF92DF92EF92FF920F931F93CF93DF9381
:1023500000D000D0CDB7DEB7F82E462E942F722FC6
:102360003AE0532E580E252C4FEEA42EBB24BA94DF
:10237000312C1AE05AE0952E960E762E781AD82E29
:10238000D90E85EF890FE82EEF0C05EF0D0DC62E47
:10239000C20E85EF8C0D898385EF820F882E860E05
:1023A0004FEF292D211B622F822D2C837E839D834D
:1023B00095DE4FEF372D320D632F652C611A862D78
:1023C0003B838CDE4FEF2C81622F2E2D230D822F2D
:1023D0002C8384DE4FEF3B81632F502F510F852FCD
:1023E0005A837CDE4FEF3981310F632F2C81822F8E
:1023F0003B8374DE4FEF282D230D622F5A81852FEA
:102400002C836CDE4FEF3B81632F822D67DE4FEF15
:102410002C81622F862D62DEE32DF0E07E819D818E
:10242000B7FE08C0EE0FFF1FEE0FFF1F3696AE0E71
:10243000BF1E0AC0E11BF109EE0FFF1FEE0FFF1FC9
:102440003A96AE0EBF1E115033942A94131508F01D
:10245000A7CF9551192F150DEE24EA94042D212FA5
:10246000442D652D88E394E07E830E9444024FEF63
:102470004C0D042F212F652D88E394E00E94440227
:102480007E817551172F190D012F2F2D492D6F2D7D
:1024900088E394E00E9444026FEF6D0D262F492DD2
:1024A00088E394E00E94440226960FB6F894DEBFBB
:1024B0000FBECDBFDF91CF911F910F91FF90EF9095
:1024C000DF90CF90BF90AF909F908F907F906F9054
:1024D0005F904F903F902F900895CF93DF93AC0182
:1024E000990F660B770B77FF04C08AE993E0EFDA68
:1024F00004C02AE08AE993E0A2DAEC016EEF72E010
:102500008AE993E087DA8C0F9D1FDF91CF910895C0
:10251000CF93DF93CDB7DEB7C65BD1090FB6F89482
:10252000DEBF0FBECDBF789484B5826084BD84B514
:10253000816084BD85B5826085BD85B5816085BDBE
:1025400080916E00816080936E0010928100809176
:1025500081008260809381008091810081608093FE
:102560008100809180008160809380008091B10023
:1025700084608093B1008091B00081608093B0004E
:1025800080919100826080939100809191008160A0
:102590008093910080919000816080939000809161
:1025A000A10082608093A1008091A100816080934E
:1025B000A1008091A00081608093A0008091210102
:1025C00082608093210180912101816080932101AB
:1025D0008091200181608093200180917A00846045
:1025E00080937A0080917A00826080937A00809153
:1025F0007A00816080937A0080917A00806880936D
:102600007A001092C100E091AA03F091AB0382E03E
:102610008083E091A603F091A7031082E091A803C4
:10262000F091A9038FEC80831092B203E091AE0386
:10263000F091AF0386E08083E091AC03F091AD03AD
:10264000808180618083E091AC03F091AD03808153
:1026500088608083E091AC03F091AD038081806855
:102660008083E091AC03F091AD0380818F7D808306
:102670006EEE72E08AE993E0CDD96EEF72E08AE9FE
:1026800093E0C8D98EE0E0EBF2E09E012F5F3F4F70
:102690006901D90101900D928A95E1F77E0133E03D
:1026A000E30EF11C11E0812C44E2942E44EFA42EA1
:1026B000B12C50E8452E5EE3552E612C712CF701AC
:1026C000219131917F0140E050E0C501B401D1D4A6
:1026D000CA01B901A3019201CCD4223031054105D0
:1026E000510520F41F5F173051F725C0163019F13E
:1026F000112309F11092800088E08093810080917D
:102700008100182B1093810030938900209388005A
:1027100080916F00826080936F0061E08091010280
:10272000E2DA60E080910002DEDA61E08AE0DBDA82
:1027300060E08AE0A9DA82E08093000283E080937F
:10274000010280912303811105C081E0809323035E
:1027500010922203399A3A9A389A40983C9A4498AF
:102760003B9A4398429841988FEF8093240380933B
:1027700025031092370462E370E080E090E0EFDA26
:1027800036E2E32E33E0F32E10E00FEF449A439845
:1027900011B802B9429A4198409AC89500C080B1D8
:1027A000409884FD22C087FD20C0F70101937F017E
:1027B000412F6FE388E394E077DB412F60EC88E3FF
:1027C00094E072DB113019F011E04BDBE1CFE12C2A
:1027D0000FE32FE740E060E088E394E00E944402CA
:1027E00040E060E088E394E070DB16E061E0812F78
:1027F0007ADA1F5F1B30D1F75E01F1E5AF0EB11C35
:1028000035012FEF621A720A98E0292E91E0392ED5
:102810002DE3422E22E0522EFF24FA9480917B0079
:10282000877F80937B0031E430937C0080917A0035
:10283000806480937A0080917A0086FDFCCF80913D
:1028400078002091790090E0922B90938003809300
:102850007F0343DE80917903882309F451C00091FE
:1028600078030350003508F000E510E0A80169E2A4
:1028700073E0C501D6D610927903E090780388E220
:10288000882E83E0982E8FEF9FEFE80CE81431F04C
:10289000F40161914F010E94D809F8CF883B904F15
:1028A00079F560E073E0C601A1D8F5018081893631
:1028B00021F54301C4018A199B098017910734F45B
:1028C000F40161914F01C60115D8F4CF89819A8135
:1028D000009711F0C8D203C060E070E0CB017093A4
:1028E0007E0360937D0361E073E08AE993E092D810
:1028F00080917D0390917E03F0DD89819A8111D5CD
:1029000080907F039090800360E073E0CE01835558
:102910009F4F6CD84AE0B401C60131D862E173E040
:10292000CE018F559F4F62D8B601CE018F559F4F74
:102930000E944A0CBC01CE0183559F4F0BD8CF5546
:10294000DF4F88819981C15AD040EBD489819A8127
:10295000E8D4CF54DF4F08811981C15BD040011505
:10296000110511F4198212C00F34110510F00FE493
:1029700010E0C355DF4F68817981CD5AD040A8015E
:10298000C6015FD6F601E00FF11F1082F60101903B
:102990000020E9F73197BF016C197D09C6010E943B
:1029A000EA0980917A038111FCCF4AE0B401CE019B
:1029B0008F559F4F0E94BF0C62E173E0CE01895595
:1029C0009F4F14D8BE016F557F4FCE0189559F4F41
:1029D0000E944A0CBC01CE0183559F4F0E94AA0C55
:1029E000C955DF4F88819981C75AD0409AD4CF55B5
:1029F000DF4F88819981C15AD04093D4CF54DF4FA3
:102A000088809980C15BD0408114910411F41982AF
:102A100015C0FFE48F16910410F4840102C00FE486
:102A200010E0C355DF4F68817981CD5AD040A801AD
:102A3000C60107D6F601E00FF11F1082C355DF4F24
:102A400068817981CD5AD040A4018AE993E00E943F
:102A50009A0A6EEF72E08AE993E00E940A0DF6018D
:102A600001900020E9F73197BF016C197D09C6017B
:102A70000E94EA0980917A038111FCCF68EC70E032
:102A800080E090E06CD960917D0370917E03072E09
:102A9000000C880B990B61D224E13EEA43E251E439
:102AA0000AD371D3CD54DF4F688379838A839B83A4
:102AB000C35BD04010E0412F60E088E394E005DA8A
:102AC00080913F048093440480914004810F80935F
:102AD00045041092460400E060E088E394E058DA90
:102AE0000F5F0038C9F7185F103429F790913F0441
:102AF000809140041092460430923E0420923D049E
:102B000050927C0340927B03F0923C049D5F909333
:102B100044048B5F8093450464E173E088E394E0B0
:102B20000E940A0D80913F048D5D80934404809142
:102B300040048B5F809345041092460440917D03CE
:102B400050917E03052E000C660B770B77FF05C0B6
:102B500088E394E00E94670D05C02AE088E394E0D2
:102B60000E941F0D80913F048F5B809344048091ED
:102B700040048B5F80934504109246046BE173E040
:102B800088E394E00E940A0D80913F048B5A809361
:102B90004404809140048B5F809345041092460466
:102BA000CD54DF4F28813981C35BD040A901330F59
:102BB000660B770B77FF05C088E394E00E94670DF2
:102BC00005C02AE088E394E00E941F0D80913F0435
:102BD0008D5880934404809140048B5F809345041A
:102BE000109246046FE173E088E394E00E940A0DBE
:102BF00025E145E166E18FE099DB25E145E166E10C
:102C000086E394DB25E145E166E185E58FDB809095
:102C10007D0390907E0334E3831631E09306ECF459
:102C20004FEF6AE089E1E8DA5CDBEE24EA9406E340
:102C3000CD54DF4F2881C35BD0402C5F42E365E079
:102C400088E394E00E94440261E086E01DD860E0E1
:102C500088E01AD860E087E017D8C4018453914017
:102C60008433914020F540E069E089E1C5DA4FEF17
:102C70006AE080E4C1DA35DBEE24EA9406E3CD5461
:102C8000DF4F2881C35BD0402C5F42E365E088E3DF
:102C900094E00E94440261E087E00E94440E60E0FC
:102CA00086E00E94440E60E088E00E94440EC40169
:102CB000885692408333914028F540E069E089E1ED
:102CC0009BDA4FEF6AE08FE597DA0BDBCD54DF4FED
:102CD0002881C35BD0402C5FEE24EA9406E342E3F4
:102CE00065E088E394E00E94440260E087E00E948F
:102CF000440E60E086E00E94440E61E088E00E949D
:102D0000440E66C02BE9821623E092060CF460C0E4
:102D100040E069E089E170DAE4DACD54DF4F2881E0
:102D2000C35BD0402C5FEE24EA9406E342E365E007
:102D300088E394E00E94440261E086E00E94440E31
:102D400060E087E00E94440E60E088E00E94440E4C
:102D50004FEF6AE089E150DA68EC70E080E090E0E3
:102D60000E94AF0E60E086E00E94440E61E087E0C2
:102D70000E94440E60E088E00E94440E40E069E05A
:102D80008FE53ADA40E069E089E136DA4FEF6AE050
:102D900080E432DA68EC70E080E090E00E94AF0EF0
:102DA00060E086E00E94440E60E087E00E94440EEE
:102DB00061E088E00E94440E40E069E089E11CDAAD
:102DC00040E069E080E418DA4FEF6AE08FE514DA5A
:102DD000C355DF4F88819981CD5AD040A2D20E943D
:102DE000930B1CCDEAE9F3E01382128288EE93E0A4
:102DF000A0E0B0E084839583A683B78384ED92E05E
:102E00009183808385EC90E09587848784EC90E0C3
:102E10009787868780EC90E0918B808B81EC90E0A7
:102E2000938B828B82EC90E0958B848B86EC90E088
:102E3000978B868B118E128E138E148EE8E3F4E03E
:102E400013821282178210868FE781878FE3828731
:102E5000138614861586168686EE92E0918380830B
:102E60001092370408951F93FC0199278827BC010D
:102E7000E89411911032E9F3193010F01E30C8F3C4
:102E80001B3249F01D3241F4689405C026D0610F11
:102E9000711D811D911D119110531A30B8F33EF42C
:102EA00090958095709561957F4F8F4F9F4F1F91A3
:102EB00008954532510518F4423008F004C0FB0172
:102EC0001082CB010895BB274A3031F4992322F4B4
:102ED000BDE2909581959F4F16C0592F482F372FEF
:102EE000262F660F771F881F991F660F771F881F71
:102EF000991F620F731F841F951F660F771F881F0E
:102F0000991F0895BB27FB015527AA27880F991FF2
:102F1000AA1FA41710F0A41B83955051B9F7A05D08
:102F2000AA3308F0A95DA193009779F7B111B19385
:102F30001192CB0100C0DC01FC01672F7191772356
:102F4000E1F7329704C07C916D9370836291AE1764
:102F5000BF07C8F30895E89409C097FB3EF4909525
:102F60008095709561957F4F8F4F9F4F9923A9F062
:102F7000F92F96E9BB279395F695879577956795F1
:102F8000B795F111F8CFFAF4BB0F11F460FF1BC035
:102F90006F5F7F4F8F4F9F4F16C0882311F096E9C8
:102FA00011C0772321F09EE8872F762F05C0662376
:102FB00071F096E8862F70E060E02AF09A95660F2F
:102FC000771F881FDAF7880F9695879597F90895E8
:102FD00097F99F6780E870E060E008959FEF80ECCC
:102FE000089500240A94161617061806090608956F
:102FF00000240A9412161306140605060895092ED5
:103000000394000C11F4882352F0BB0F40F4BF2B43
:1030100011F460FF04C06F5F7F4F8F4F9F4F089583
:1030200057FD9058440F551F59F05F3F71F0479579
:10303000880F97FB991F61F09F3F79F0879508955E
:10304000121613061406551FF2CF4695F1DF08C07D
:10305000161617061806991FF1CF8695710561059A
:1030600008940895E894BB2766277727CB0197F942
:103070000895A1E21A2EAA1BBB1BFD010DC0AA1FB9
:10308000BB1FEE1FFF1FA217B307E407F50720F0D1
:10309000A21BB30BE40BF50B661F771F881F991F4C
:1030A0001A9469F760957095809590959B01AC0195
:1030B000BD01CF0108950CD0A2CF9ADF40F091DF7F
:1030C00030F021F45F3F19F083CF5111CCCF86CF80
:1030D000A7DF98F39923C9F35523B1F3951B550B3B
:1030E000BB27AA2762177307840738F09F5F5F4FDB
:1030F000220F331F441FAA1FA9F333D00E2E3AF01C
:10310000E0E830D091505040E695001CCAF729D035
:10311000FE2F27D0660F771F881FBB1F2617370784
:103120004807AB07B0E809F0BB0B802DBF01FF27B4
:1031300093585F4F2AF09E3F510568F049CF93CFD7
:103140005F3FECF3983EDCF3869577956795B795EE
:10315000F7959F5FC9F7880F911D9695879597F909
:103160000895E1E0660F771F881FBB1F6217730782
:103170008407BA0720F0621B730B840BBA0BEE1F97
:1031800088F7E095089504D06894B1116CCF089544
:103190004FDF88F09F5790F0B92F9927B751A0F0D3
:1031A000D1F0660F771F881F991F1AF0BA95C9F7DB
:1031B00012C0B13081F056DFB1E0089553CF672FD0
:1031C000782F8827B85F39F0B93FCCF3869577958B
:1031D0006795B395D9F73EF4909580957095619574
:1031E0007F4F8F4F9F4F0895EE0FFF1F881F8BBF9C
:1031F0000790F691E02D1994CF93DF9382309105DB
:1032000010F482E090E0E0914904F0914A0420E05B
:1032100030E0C0E0D0E0309711F140815181481793
:103220005907C0F04817590761F4828193812097AC
:1032300019F09B838A832BC090934A04809349049E
:1032400026C02115310519F04217530718F49A01C9
:10325000BE01DF01EF010280F381E02DDCCF2115FB
:10326000310509F1281B390B2430310590F41296F1
:103270008D919C9113976115710521F0FB0193834A
:10328000828304C090934A0480934904FD013296DE
:1032900044C0FD01E20FF31F819391932250310945
:1032A0002D933C933AC02091470430914804232B3E
:1032B00041F42091AC023091AD0230934804209348
:1032C00047042091AA023091AB022115310541F447
:1032D0002DB73EB74091AE025091AF02241B350B83
:1032E000E0914704F0914804E217F307A0F42E1B85
:1032F0003F0B2817390778F0AC014E5F5F4F24175A
:10330000350748F04E0F5F1F509348044093470421
:103310008193919302C0E0E0F0E0CF01DF91CF9183
:1033200008950F931F93CF93DF93009709F48CC0F8
:10333000FC013297138212820091490410914A04D1
:103340000115110581F420813181820F931F209195
:103350004704309148042817390779F5F093480459
:10336000E093470471C0D80140E050E0AE17BF07BA
:1033700050F412962D913C911397AD012115310512
:1033800009F1D901F3CF9D01DA01338322836081F2
:103390007181860F971F8217930769F4EC012881CA
:1033A0003981260F371F2E5F3F4F318320838A815B
:1033B0009B8193838283452B29F4F0934A04E09305
:1033C000490442C01396FC93EE931297ED01499184
:1033D00059919E01240F351FE217F30771F4808184
:1033E0009181840F951F029611969C938E938281F2
:1033F000938113969C938E931297E0E0F0E0D801AE
:1034000012968D919C911397009719F0F8018C01F9
:10341000F6CF8D919C9198012E5F3F4F820F931FA5
:1034200020914704309148042817390769F43097F0
:1034300029F410924A041092490402C013821282A5
:103440001093480400934704DF91CF911F910F918F
:1034500008956F927F928F929F92AF92BF92CF9278
:10346000DF92EF92FF920F931F93CF93DF93EC01C4
:10347000009781F4CB01DF91CF911F910F91FF90C5
:10348000EF90DF90CF90BF90AF909F908F907F9004
:103490006F90B2CEFC01E60FF71F9C01225031095C
:1034A000E217F30708F4A8C0D9010D911C911197F8
:1034B00006171707A8F00530110508F49BC0C801CE
:1034C00004978617970708F495C002501109061B48
:1034D000170B019311936D937C93CF0122DF8AC068
:1034E0005B01A01AB10A4C01800E911EA091490403
:1034F000B0914A0440E050E0E12CF12C109709F41F
:103500004AC0A815B905D1F56D907C90119763015B
:1035100082E0C80ED11CCA14DB0480F1A3014A1951
:103520005B096A0182E0C80ED11C1296BC9012970A
:103530001396AC91B5E0CB16D10440F0B282A383D0
:1035400051834083D9016D937C930AC00E5F1F4F56
:10355000C301800F911FF90191838083EB2DFA2F16
:10356000E114F10431F0D7011396FC93EE93129716
:1035700041C0F0934A04E09349043CC08D919C9172
:1035800011974817590708F4AC017D0112960D9068
:10359000BC91A02DB3CF8091470490914804881529
:1035A0009905E1F446175707C8F48091AA02909153
:1035B000AB02009741F48DB79EB74091AE02509197
:1035C000AF02841B950BE817F907B0F4F093480499
:1035D000E0934704F901718360830CC0CB010CDEDA
:1035E0007C01009749F0A801BE011BD0CE0199DEF5
:1035F000C70104C0CE0102C080E090E0DF91CF910E
:103600001F910F91FF90EF90DF90CF90BF90AF9000
:103610009F908F907F906F90089581E090E0F89454
:103620001FC0FB01DC0102C001900D9241505040CF
:10363000D8F70895FB01DC0101900D920020E1F71D
:103640000895FB01DC014150504048F001900D927B
:103650000020C9F701C01D9241505040E0F7089585
:04366000F894FFCF0C
:103664000B0C2A2A2A2A2A2A382C000000000000DF
:103674000000000000000000000000000000000046
:103684000000000000000000000000000000000036
:103694000000000000000000000000000000000026
:1036A4000000000000000000000000000000000016
:1036B4000000000000000000000000000000000006
:1036C40000000000000000000000000000000000F6
:1036D40000000000000000000000000000000000E6
:1036E40000000000000000000000000000000000D6
:1036F40000000000000000000000000000000000C6
:103704000000000000000000000000004B048000E6
:10371400000001000800400000010004050D000A3B
:103724000D0E131516191A1C232526292A2C32349A
:10373400000000002C0B9A0AC50A720BF60AD40A80
:10374400E80A000000006F089A0A4102400252652C
:10375400636570746F723A207365747570000D0A36
:10376400004461746F3120726563696269646F3A01
:1037740020006A004C4450313A2000554320002573
:02378400000043
:00000001FF
